:020000022000DC
:1060000000000120756302005D6302005F6302000F
:106010006163020063630200656302000000000028
:1060200000000000000000000000000067630200A4
:1060300069630200000000006B6302006D630200F0
:106040004D9702006F630200519B0200119D0200F8
:106050006F6302006F630200059A02006F63020023
:106060006F6302006F6302006F6302006F630200E0
:106070006F630200799C02006F6302006F6302008D
:106080006F630200697302006F6302006F630200B6
:106090006F6302006F630200952703006F630200C5
:1060A0006F6302006F6302006F6302006F630200A0
:1060B0006F6302006F630200000000000000000038
:1060C0006F6302006F6302006F6302006F63020080
:1060D0006F6302006F6302006F6302000000000044
:1060E00000000000000000000000000000000000B0
:1060F00000000000000000000000000000000000A0
:10610000000000000000000000000000000000008F
:10611000000000000000000000000000000000007F
:10612000000000000000000000000000000000006F
:10613000000000000000000000000000000000005F
:10614000000000000000000000000000000000004F
:10615000000000000000000000000000000000003F
:10616000000000000000000000000000000000002F
:10617000000000000000000000000000000000001F
:10618000000000000000000000000000000000000F
:1061900000000000000000000000000000000000FF
:1061A00000000000000000000000000000000000EF
:1061B00000000000000000000000000000000000DF
:1061C00000000000000000000000000000000000CF
:1061D00000000000000000000000000000000000BF
:1061E00000000000000000000000000000000000AF
:1061F000000000000000000000000000000000009F
:10620000354936480A1A02D0072291438D4634494F
:1062100034480A1A06D00722914381F309880222E2
:1062200082F3148830483149314A00F044F831484B
:106230003149324A00F03FF831483249324A00F0E1
:106240003AF832483249334A00F035F83248334997
:10625000334A00F030F833483349344A00F02BF821
:1062600033483449344A00F026F83448344900228F
:1062700000F02CF833483449002200F027F8334866
:106280003349091A082902DB002202604160314AC1
:1062900090471F481F49884205D00268043003B464
:1062A000904703BCF7E700208646EC46002000211B
:1062B000294A9047FEE7884207D0521A05D0037852
:1062C00001300B700131013AF9D17047884202D098
:1062D00002700130FAE770470000012000E0002062
:1062E000000001200000012098B50300E42B0020ED
:1062F000502C0020D0630200D0630200D45D030064
:1063000098B50300E42B0020E42B0020B05F0300CD
:10631000B05F0300B05F0300B05F0300B05F030035
:10632000B05F0300B05F0300B05F030098B50300E7
:1063300004B60300502C0020502C0020502C0020CC
:10634000BC470020BC470020BC470020BC470020C1
:10635000BC6700209D630200F5CF0200FEE7FEE768
:10636000FEE7FEE7FEE7FEE7FEE7FEE7FEE7FEE705
:1063700000F002B8FFF7FCBF0F484FF00701884359
:1063800085460E4880470E48016841F4700101605F
:10639000BFF34F8FBFF36F8FFFF732BF09480A4932
:1063A0000A4A884207D0521A05D0037801300B7090
:1063B0000131013AF9D1704700000120D1D5020026
:1063C00088ED00E09C5F0300D02B0020E42B002030
:1063D000022004F02DBC00002DE9F04780460D4658
:1063E00004F046FC0328044610D8012D10D0022DDD
:1063F00030D05DB91A4800F070FD1A4B04EB44022E
:1064000013449D78184B1B5DAB4219D0BDE8F08753
:10641000144E00EB4003F218F55C5378470053B17B
:10642000DFF84C900E484A464FF4804100F03DFDA5
:1064300008B989F8008027443E440B4BB2781A55BE
:10644000002DE3D0094B1B68002BDFD02846BDE8A8
:10645000F047184700EB4004024804446578EFE732
:10646000782C0020B82C0020D12C0020CC2C00202F
:10647000502C002000780221FFF7AEBF08B5094B71
:106480001B7853B1002004F0A9FB012004F0A6FB07
:10649000BDE80840032004F0A1BBBDE8084004F0BB
:1064A000A9BB00BF512C0020F8B57A4C23780546D3
:1064B0001BB100232370FFF7E1FF172D00F2878047
:1064C000DFE805F00C1717425364757F878C878CC3
:1064D000949999999999C3C8D0D8E3E3FFF7CEFF6F
:1064E0006D4800F0FAFC6D4B002204461A702046FD
:1064F000F8BD002004F058FBF0B1002004F06EFB62
:10650000022D0CBF4FF4E1644FF47A64634B1D70AD
:1065100000254FF400464FF47A7029464FF4FA6292
:106520000023E4FB06010CF00CFB2A460146BDE803
:10653000F840594800F0B9BC04F044FB022D0CBFF0
:10654000C8244FF4C874E1E7002004F02DFB40B1EB
:10655000002004F043FB4FF44874504B03221A70A0
:10656000D6E704F02FFBC824F7E7002004F01CFB5B
:1065700038B1002004F032FB4FF47A64474B042218
:10658000EDE704F01FFB4FF4C874F7E7002004F0B8
:106590000BFB48B1002004F021FB404B05221A7090
:1065A00040F6CD410022C2E704F00CFBF5E70020E5
:1065B00004F03EFB394B06221A70002240F266615D
:1065C000B5E7002004F0FEFA344B07221A700024CD
:1065D0008DE70120207004F02BFBEEE701202070F6
:1065E00004F026FB00224FF40051A0E704F011FB59
:1065F0002A4B0C22EAE72A482A4E00F06EFCD5F11D
:10660000110504461CD0D8B9012D13D0C82045432C
:1066100021464FF400474FF47A704FF4FA6200239A
:10662000C5FB07010CF08DFA224601461C4800F01C
:106630003CFC0446022004F0C5FA0123337056E7FF
:10664000022004F0CBFA0023F8E7FFF717FF134B03
:106650001222BBE7FFF712FF002004F0B3FA0F4B42
:106660001322B3E7FFF70AFF012004F0ABFA0B4B4C
:106670001422ABE7FFF702FF002004F0A3FA012089
:1066800004F0A0FA054B1522A0E704F0C2FA034B70
:106690001D709CE7C82C0020982C0020D02C0020D6
:1066A000582C0020512C0020044B1B68DB0703D51D
:1066B000034B1878FFF7F8BE704700BFC42C0020CA
:1066C000D02C002010B5002914BF0324002404F0AE
:1066D000E1FA800000F1A040D0F8002722F4403217
:1066E000C0F80027D0F8003743EA0443C0F8003769
:1066F000002010BD032801D804F0ACBA0020704778
:10670000044B1B6813F0010301D0FFF7CDBE184600
:10671000704700BFC42C002038B51C4B18601C4BC0
:1067200010F00204054619601AD01A4B1A480E22BE
:106730001A700F22DA7010229A7111225A720421F3
:1067400040F2333200F048FA044648B900F09CFAAF
:10675000044628B90146114A114800F09BFB044643
:10676000EB0711D5012004F09BFA6CB921460D4AC4
:106770000D4800F08FFB044630B9BDE838400B4AA5
:106780000B48012100F086BB204638BDC42C0020F8
:10679000CC2C0020B82C0020B05F030075640200F0
:1067A000D45F0300A9660200D85F0300D163020032
:1067B000D05F0300032811D8012A0AD101290FD183
:1067C00000F10E02D2B20D4B00EB40001A54002033
:1067D00070470129F7D0022904D049B1072070473A
:1067E0000022F8E7054B00EB400018444270EEE74A
:1067F000024B00EB400018448270E8E7B82C002000
:10680000032802D80121FFF75DBF0620704708B5B5
:10681000012202210020FFF7CDFF08B1072810D187
:10682000072202210120FFF7C5FF08B1072808D180
:1068300000210A220846FFF7BDFF10B1072808BF54
:10684000002008BD0388102B10B502D0112B1ED0DC
:1068500010BD1A4C2168B1B901220846FFF7AAFF02
:1068600008B1072824D1072202210120FFF7A2FF47
:1068700008B107281CD1042202210020FFF79AFF4B
:1068800008B1072814D1236801332360E0E70B4ADD
:106890001368013B1360002BDAD1FFF7B8FF002823
:1068A000D6D0074B1B68002BD2D0BDE8104018474C
:1068B000034B1B68002BE6D09847E4E7DC2C002054
:1068C000D82C002008B50020FFF79AFF08B1062851
:1068D00006D10120FFF794FF10B1062808BF002061
:1068E00008BD00000D4B10B518600C4629B1012001
:1068F000FFF700FF40B102232370094B1B6853B917
:10690000BDE81040FFF783BFFFF7F4FE08B10B238B
:10691000F2E72070F1E7002010BD00BFD82C002066
:10692000DC2C002005F06ABF0021084605F01ABFE4
:1069300010F1360F0AD060B148F2165348F21152E6
:1069400010F1380F08BF13461846704748F2145329
:10695000FAE70346F8E708B50846114602F036FEA6
:10696000002008BD30B5044685B0002002F0B0FD1F
:10697000054678B9201D039005F07DFC0649039873
:1069800000952B462A4605F0CBFC05B0BDE830400B
:10699000FFF7CEBF05B030BD5769020008B504301F
:1069A00005F06EFC02F0C0FD002008BD08B5043003
:1069B00005F04DFDBDE80840FFF7BABF08B5114628
:1069C00004301A4605F06AFCBDE80840FFF7B0BF86
:1069D000C30710B507D4F023054A4008145C2340D0
:1069E0001943115410BD0901C9B20F23F4E700BFC8
:1069F000102D002030B5094B1C78094B1968002375
:106A00009C4202DC0022104630BD11F83350854212
:106A100001EBC302F7D00133F2E700BFE02C002006
:106A2000202D002013B504460191FFF7E3FF38B194
:106A300043682BB10199204602B0BDE810401847C9
:106A400002B010BD034B044819680022490800F049
:106A50002CBA00BFE42C0020E82C002010B5C0B2F6
:106A6000FFF7C8FF0446007802F0C2FF63785A1EA1
:106A700053425341834208D1044BD3E900231343CB
:106A800003D1BDE81040FFF7DDBF10BD082D002089
:106A900037B54308374AD35CC2074CBF1B0903F024
:106AA0000F0304460D46042B25D8DFE803F0032628
:106AB0002F3C4000F9B10121FFF78AFF00230DF1BF
:106AC00007008DF8073000F0E1FA0120A4F120035F
:106AD000C4F12001284A20FA01F100FA03F30B4324
:106AE000A040D2E9004120430B43C2E900039DF8D6
:106AF000070000F0EFFA03B030BD002918BF0221F3
:106B0000204603B0BDE83040FFF762BF49B1032122
:106B1000FFF75EFF0121204603B0BDE83040FFF7DC
:106B200081BF0121ECE70029E5D10421E8E709B1A3
:106B30000321E5E7FFF74CFF29462046FFF772FFE8
:106B40000DF107008DF8075000F0A0FA0120A4F124
:106B50002003C4F12001084A20FA01F100FA03F3EE
:106B60000B43A040D2E9004124EA000021EA0303DC
:106B7000BBE700BF102D0020082D00202DE9F041BB
:106B8000124E134F00243378A34208DC114BD3E993
:106B90000023134318D0BDE8F041FFF753BF3D6811
:106BA00005EBC40815F8340002F022FF98F8013014
:106BB0005A1E53425341181A4142414115F83400BC
:106BC000FFF766FF0134DEE7BDE8F081E02C00202E
:106BD000202D0020082D0020092AF7B505460C4677
:106BE00016463ED902F03CFEE8B11F4B1F481D601F
:106BF0001F4B204F1C70204B002110221E600CF0F8
:106C000036F91E4B00200021C3E90001013CE4B22B
:106C10000326FF2C0DD11A4A1A48002103B0BDE803
:106C2000F04000F037B902F0E3FD0028DDD003B0FA
:106C3000F0BD9DF8063015F834008DF8046005EBC2
:106C4000C40223F007038DF8063001A993788DF86C
:106C500005303A4602F00EFE013CE4B20028D8D0DE
:106C6000E5E70720E3E700BF202D0020102D0020DE
:106C7000E02C00205D6A0200E42C0020082D00209A
:106C80007D6B0200E85F030070B5084D084E0024DC
:106C90002B789C4201D3002070BD3368012113F88A
:106CA000340002F05FFE0134F2E700BFE02C002068
:106CB000202D00201FB50021039001AA44F20100FD
:106CC000CDE9011100F004F805B05DF804FB000007
:106CD00038B572B604F09EFB04F0EEF90028FBD143
:106CE000104B114C114D1249E41AE408240444F0ED
:106CF000010004F02BFBD5F8F030DB0700D500BE17
:106D00000C4944F0020004F021FBBFF34F8FEA6806
:106D1000094B02F4E0621343EB60BFF34F8F00BFF7
:106D2000FDE700BF945E0300CC5E030000ED00E0D1
:106D3000EC5F0300F85F03000400FA0510B5D0E92A
:106D40000243D1E90202A04272EB03032CBF0120EF
:106D5000002010BD08B50A4800F0EFFA094AD2E950
:106D60000031C018084BD3E9002341F100019042E3
:106D700071EB030303D210F1807041F1000108BDF3
:106D8000E42B0020282D0020A02D002037B505463B
:106D90000C460A4801A901F08EFA60B10570446002
:106DA00001A9064801F0B1FA18B1054800F0CAFA85
:106DB000002003B030BD0420FBE700BF8C2D002075
:106DC000E42B002038B5184B1B78044613B9002576
:106DD000284638BD0028FAD0037F03F0FF05002BBA
:106DE000F5D0FFF7B7FFD4E90223904271EB03031C
:106DF00014D3236903B92377D4E90530984721696F
:106E00000029E4D0237F03F0FF05002BDFD0D4E975
:106E100002325B1842F10002C4E902320348214603
:106E200002F018FAD4E700BF302D002014600300F0
:106E300013B5114B114918680190082310485822C6
:106E400001F004FA044698B90E4A0F4801A900F06F
:106E500065F9044660B90C48012100F051FA01239C
:106E60000A4A0948194600F0B3F9094B01221A7081
:106E7000204602B010BD00BF10600300342D00207A
:106E80008C2D0020FD6E0200E42B0020FFFF7F0010
:106E9000302D00203AB103685A614A1E51425141D7
:106EA0001961002070470720704738B5037F0446FA
:106EB0000D4683B98261FFF74DFF2369281841F120
:106EC0000001C4E9020103B1256121460020BDE8AB
:106ED0003840FFF75BBF002038BD00230146037731
:106EE0000120FFF753BF401A20F07F407047000099
:106EF000014800F022BA00BFE42B00202DE9F3473F
:106F0000064600F005FA40B1584AD2E9003113F1C3
:106F1000807341F10001C2E900310021304600F0E8
:106F200006FA38B1524C236823B12068FFF74AFFB4
:106F3000002323600121304600F0F9F920B1FFF76A
:106F400009FF4C4BC3E900014B48494D4B4C4C4F9A
:106F500001A901F0EAF9002842D1DFF82081444C70
:106F6000DFF82491404602F08BF92368002872D0A4
:106F70007BB12368D0E90252D3E902138D4272EB50
:106F800003032AD223681B7F1BB12168404602F00D
:106F900061F9404602F06EF9D0E9027A0546FFF742
:106FA000D9FE381A6AEB010A01287AF1000345DBA1
:106FB000B0F5350F40D3FFF79BFF324A02444FF440
:106FC00096030021484600F023F900283ED12368AB
:106FD00013B9304600F0F4F8256002B0BDE8F08740
:106FE0000378012B1DD0022B09D14FF00008204659
:106FF00002F040F9002836D080F81C80F7E73BB952
:1070000041680B7F23B901230B77204602F022F958
:1070100001A9194801F0B4F901A9174801F085F94F
:1070200099E741682B68994202D100232B60EFE772
:10703000204602F028F9EBE7AA68C0E7002148469D
:1070400000F06BF92846FFF7BDFE01E00D28F9D0EE
:107050000023236086E7002BBFD1304602B0BDE895
:10706000F04700F0B1B801233B70D1E7282D002094
:10707000A82D0020A02D00208C2D002014600300DE
:10708000302D0020FFFFB400E42B002070B5EFF39B
:10709000108672B60C4A946801239CB993600B4B1E
:1070A0000B4DD3F8801029401160C3F88050D3F8FD
:1070B000841051604FF0FF32C3F88420047006B989
:1070C00062B670BD0370FAE7AC2D002000E100E06D
:1070D000FC06FFBD084B9A6810B55AB150B9EFF3E2
:1070E000108172B6054A1C6814605C685460986030
:1070F00001B962B610BD00BFAC2D002000E100E078
:10710000435882B03BB10023435043580193019B45
:10711000012002B070471846FBE70000F8B5204B8D
:107120004479204E43F824201F4A204B06EBC40428
:107130009B1A2279DB081B0432B143F002001C4980
:1071400004F004F90820F8BD02680C88C2F808456C
:1071500090F904508A7804795201002DD2B219DBDB
:1071600014494F1987F8002301226D0904F01F0408
:1071700002FA04F441F82540427906EBC2010124E9
:1071800046F832000C7143F003000B4904F0DEF8BE
:107190000020D8E7094904F00F040A55ECE700BFC6
:1071A000C02D0020B82D0020945E0300DC5E03009B
:1071B0002060030000E100E04260030014ED00E005
:1071C000036801221A607047036801225A60704701
:1071D00073B501F15005AD000068ADB24FF48034D5
:1071E0008C400026C0F80843C0F84843465101F5DA
:1071F000A8714559019522F07F42019D40F8212058
:10720000C0F844430BB1C0F8044302B070BD0000A5
:107210002DE9F74F0D4622F07F4402684FF4803786
:1072200005F150068F408046B60002EB8500C2F89B
:107230004873B6B2C2F80873D2F8041599464FF0F5
:10724000000BD0F84035C0F8401542F806B05B1A84
:107250009259009223F07F43012B009A4FEA850A4E
:107260000CD1264B4FF4806043F001039847D8F8C7
:10727000003043F806B09B590193019BD8F80010E9
:10728000D1F80465C1F84473A31B23F07F43012B9D
:107290001CD11A4B05F5A875013443F0010341F8E0
:1072A00025404FF480609847D8F80030D3F8043573
:1072B0009E4209D1D8F800300020C3F84473C3F8C7
:1072C000047303B0BDE8F08F0D20FAE78A44C9F1DA
:1072D000FF13CAF84045D1F80405221A013A22F0FA
:1072E0007F4203F57F439342EED3002AE2D101347B
:1072F000CAF84045D1F804359842DAE760600300E7
:1073000003680222C3F8442309B1C3F80423704779
:1073100000684FF48271FFF7F3BE4FF4803303FA35
:1073200001F10368C3F84813C3F8081370475031DC
:107330008900006889B2FFF7E3BE0368D3F804054B
:107340007047000090F90430002B09DB5A09012135
:1073500003F01F0301FA03F34032024941F82230DF
:10736000704700BF00E100E0024B034A1B68106851
:10737000184700BFC02D0020B82D002070B5064D65
:107380000646002455F8043B0BB1304698470134BB
:10739000042CF7D170BD00BFD02D002043880333EB
:1073A00000EB830399420BD382884FF6FF739A4216
:1073B00008D0038833B18068431C58425841704755
:1073C0000220704701207047033080B240F2FE3344
:1073D000984230B51FD8134B1A783AB91C895D8989
:1073E0002C440444A4B2B4F5806F0AD91A7DAAB91A
:1073F0009A8BDC8B2244024492B2B2F5806F0DD896
:1074000001220A801446142202FB04335A891044D4
:107410005881002030BD48F20860FBE748F2066062
:10742000F8E700BF042E00200B4A0C4953881420B3
:1074300000FB0311CB6833B90420496810700122A6
:10744000074801F061BB07490523137002238B80B5
:10745000012209680023F3E7E82D0020042E002014
:10746000D02B0020CC2E002007B500230549009327
:10747000054A09680548082301F0ACFA03B05DF835
:1074800004FB00BFCC2E002074600300D02B002032
:1074900007B5002301460093034A0448082301F07E
:1074A00099FA03B05DF804FB6C600300D02B002058
:1074B00013B500230C4600930146084A08480423EC
:1074C00001F088FA38B9074B142101FB043101237C
:1074D0000B7402B010BD48F20D60FAE7686003005B
:1074E000D02B0020042E002037B50A480A4B4268F2
:1074F0009C88196853880325033305709BB20020CC
:1075000000909B0001EB8401044801F063FA03B092
:1075100030BD00BFE82D0020CC2E0020D02B002055
:1075200010B50146044800F0C6FE1C2204460021A6
:107530000BF09DFC204610BDB82E002068B10268FB
:10754000084B9A4209D14068074B984207D0013353
:10755000984214BF03200120704703207047002089
:10756000704700BFDEC0ADDEFE011EF12DE9F04127
:107570000D460223154F2B80164600F5805100F171
:1075800008044FF001088C420ED2236801330BD05F
:107590002046FFF703FF48B10EB186F800800228AD
:1075A00009D14FF480632B80BDE8F081A3683A686D
:1075B000934200D93B602B886288033313442B80AD
:1075C0006388033304EB8304DDE700BFFC2D002058
:1075D00038B5144B14220D4602FB00302B6844686A
:1075E00004F58051A3B15C88033403EB84048C421E
:1075F00015D22368013312D02046FFF7CFFE0128B1
:1076000008D002280BD00028F1D12C60012038BD11
:107610000834ECE76388033304EB8304E7E70020D6
:10762000F5E700BF042E0020426873B504460D46FE
:107630006AB3234BD9688A4229D31B699A4226D858
:1076400012F0030323D11F490089098988421ED102
:107650002068916888421AD11B4841688A4203D940
:1076600001F580518A420DD381698A420CD901F516
:1076700080518A4208D201222A80B3FA83F040095D
:1076800002B070BD1A46F7E748F20963F5E7002635
:107690002E800196288801A9FFF79AFF30B92B8820
:1076A00001339BB2012B2B80F3D9E9E7019B2268C0
:1076B00099689142EED16360024B1B892381DFE719
:1076C000D02B0020E82D0020042E00202DE9F843C7
:1076D0001C461D4B1B7806460F46154673B382B3F6
:1076E0007CB3DFF86C804FF01409A388012B02D91A
:1076F00048F2096020E009FB03F318F803302BB9C6
:10770000A0882146FFF764FF20B92060A3880133D9
:10771000A380EAE723681EB1998832889142EFD1AD
:107720001FB119883A889142EAD19A68C5E90023C5
:10773000064B1B892B810020BDE8F88348F20160CD
:10774000FAE748F20460F7E7E02D0020E82D00207A
:10775000042E002008B5074B5888191DFFF738FF85
:1077600018B1BDE80840FFF7BFBEBDE80840FFF70D
:107770005BBE00BFE82D00202DE9F047A24FDFF8E7
:10778000AC8288B006463B6823B9A048414600F069
:10779000CCFD38603D6829784B1E052B07D8DFE803
:1077A00013F020007A007A000C010C01630148F20A
:1077B0000E641422002103A80BF059FB41F61D535F
:1077C0009C4208BF00243B6804941A78023A042AB9
:1077D00000F20282DFE812F0E301EF011102190268
:1077E00020022EB18A4B00225A604FF40644E0E793
:1077F0002B79032B1CD8DFE803F014022A35854AC5
:107800001378022B1AD0137D022B4FF0010317D1EE
:1078100014214B43D1180020D0544868FFF738FE9C
:1078200003E001232B71FFF71FFE002800F0BF804B
:10783000774B00225A6048F20D64BAE70023E7E76D
:10784000734A13700023536041F61D54B1E7724927
:107850007248002302222B718A800968012201F0FC
:1078600053F9E2E76C4C00262E712068FFF710FEFA
:107870006B4BDFF8A0C15B882568142253430CEBE7
:1078800003020CF8036051685560A5881581022237
:107890002160A280C9E7B5F814A0AA7DDFF8749131
:1078A000AEB1022AEB8806D9142101FB0A91DA1C39
:1078B000088902440A81142202FB0A99C3F57F4316
:1078C000B9F80A20FD331344A9F80A308DE71423D0
:1078D00003FB0A9318895C6804EB8004062A69D8C4
:1078E000DFE802F0274E36441D5A040041F61D54CD
:1078F000AA7DEB88022A06D9142101FB0A91DA1C21
:10790000088902440A81142202FB0A99C3F57F43C5
:10791000B9F80A20FD331344A9F80A3049E7414871
:10792000414900234360AB690360FFF77DFE0028F7
:107930005BD00223AB75002300930423EA18214691
:10794000364801F047F8002831D048F20D64CFE7FF
:107950002B69002B14BF03230123AB750023009375
:1079600005F10C02042304F10801E9E70123AB75DA
:107970000022EB8800922A699B0004F10C01DFE7EA
:1079800003290CBF05230623AB75002300930423B2
:1079900005F10802E118D3E70623AB75224B1988DD
:1079A000204B5868FFF784FD04460028A0D108B09A
:1079B000BDE8F08748F20E649AE7002E7FF415AF19
:1079C0002B79012B34D0022B3FF43EAF002B7FF4F8
:1079D000EEAE02232B710DF10A01EB68039303A8AD
:1079E000CDE90466FFF720FE10B948F20964E0E62D
:1079F0000498BDF80A108388EB8003882B81FFF779
:107A000057FD044629E000BF002E0020B82E0020BC
:107A1000E02D0020042E0020CC2E0020D02B0020B2
:107A2000E82D0020C42D0020D82E0020F82D0020A5
:107A3000DFF8009203AA4B463146A81DFFF746FE29
:107A4000044670B9B9F804100498FFF731FD0446F4
:107A500048F209639C423FF4F7AE002C7FF4A9AED4
:107A6000A5E7C9E90066F3E7002E7FF4BEAE6C4BD4
:107A70001A7BBAB11E731A78013A062A3FF697AEFE
:107A800001A151F822F000BF337B0200597B0200B4
:107A9000777B02007D7B0200AF770200837B0200D0
:107AA000957B02001A78072AE5D801A151F822F047
:107AB000D17A0200777A0200777A0200F77A020020
:107AC0000B7B02002F7B02002F7B0200F37A020067
:107AD0001A89544901321A8100225A801A730A788D
:107AE000B2FA82F252099A720A7DB2FA82F252090D
:107AF000DA72012207E04C4958688A8840880332CC
:107B000002448A8002221A70B5E75C88454A4649D9
:107B1000142505FB04220868546850608888108189
:107B200002200C608880002111740622EBE70722F6
:107B3000E9E79A7A32B9DA7A8AB900221A705A8059
:107B40005A6081E6374900229A72CA68002AF2D147
:107B5000097C0029EFD05A80FFF7FCFD51E7002295
:107B6000DA72304A116A0029E7D192F82420002AFB
:107B7000E3D00122EFE7FFF7B7FC42E7FFF754FC41
:107B80003FE75A88274B142101FB02335868FFF75F
:107B90007FFC36E700225A60FFF766FC31E70122DE
:107BA0008DF80C201A89ADF818209A88DB68ADF89A
:107BB0001A20059310E002228DF80C201A89ADF8E6
:107BC00018209A88ADF81A20DA689B7D05929A1FD2
:107BD000534253418DF81C3003A8FFF7CFFB00261A
:107BE000414612483E6000F0CBFB1148012100F0F5
:107BF00081FC00287FF4C7ADD9E603228DF80C2064
:107C0000DA88ADF818201A89D0E704228DF80C2004
:107C1000DB88ADF81830DFE705238DF80C30DBE7A3
:107C2000E82D0020042E0020CC2E0020B82E0020AD
:107C3000C82E0020DC2E00204068FFF79DBD00000C
:107C400008B50548012100F03DFC18B9BDE8084021
:107C5000FFF792BD08BD00BFC82E00202DE9F341FB
:107C60009846374B1B7806460D46002B5CD0002902
:107C70005DD009884FF6FF7399425BD06B88002B6B
:107C800058D06B689B0758D14AB92F890DF1020172
:107C90003846FFF799FB30B102B0BDE8F081138898
:107CA0005788ADF8023001A8FFF73AFC044660B9E6
:107CB000BDF80220234B142101FB023358890338FD
:107CC000C01B588148F20760E6E780F80080002377
:107CD0008375BDF8023083826B68036101211A4805
:107CE00000F0FCFB2B882381B8F1030F6B88A38085
:107CF00004BF0423A3754FF0000508BF3368E0609C
:107D000008BFA3611148E780658101A900F0FDFA71
:107D100036B1E36833600E4B75601B89B5723381F1
:107D2000FFF78EFF0020B7E748F20160B4E748F2A2
:107D30000460B1E748F20360AEE748F20260ABE7E7
:107D4000E02D0020042E0020FC2D0020B82E002065
:107D5000E82D002008B5034607480268042A08D029
:107D60000168064A42F82130012100F0B7FB0020EB
:107D700008BD48F20B60FBE7D42E0020D02D002078
:107D80002DE9F04F89B01422002103A80BF06FF801
:107D90007A4B1B7803F0FF0B3BB103A8FFF7EEFA19
:107DA0000027384609B0BDE8F08F744B181D00F06D
:107DB000ADFB0028F4D1DBF8F83FDFF8E0A15C1C54
:107DC00008BF4FF010234FF0805208BF5B69116964
:107DD0005269581C08BF02FB01F3CAF81030684909
:107DE000A3F5405300225046CAF80C3000F0C0FD05
:107DF00007460028D5D11C2362496348DFF8A091CB
:107E00008C2200F023FA0323B8463D4601933C46FA
:107E1000DAF80C6046443046FFF790FB012862D048
:107E2000032817D000283DD158494FF0140C0CFB03
:107E300004FC01EB0C0201F80C0056600CF110027E
:107E40000CF1080C0A4430466144FFF78FFB45F003
:107E5000020545E03268531C02D04D4B9A4234D1A2
:107E6000321D06F58051106801302ED10432914246
:107E7000F9D1D9F800203AB90222C9F80060A9F86E
:107E800004204FF0010B0BE0142262433F4B022011
:107E9000991898543F4A4E60548001340881A4B226
:107EA00045F0010508F58058B8F5405FB0D1019B59
:107EB000012B98BF0025EDB2022D03D0062D32D044
:107EC000002D39D148F20A676BE7019B2F495A1EF2
:107ED00093B21422624388180193466003208854A9
:107EE0000134A4B2DEE7BBF1000F0DD0274B142202
:107EF0006243991802209854D9F800204A60254A14
:107F0000088154800134A4B200222349C9F80060DA
:107F10003046FFF72BFBB9F80420022A0CBF0422DD
:107F200008221543BEE7154A0123137003A8002356
:107F30005360FFF723FA34E702A8FFF7F1FAC8B15C
:107F40000123013D03700A2D09D8DFE805F006087A
:107F50000608070807080F110F000023037102A984
:107F6000094800F0D2F9FFF76BFE1AE70323F5E7A3
:107F70000223F3E748F2076713E700BFE02D002074
:107F8000706203002C2E0020B82E0020042E00204A
:107F9000DEC0ADDEE82D0020D02E0020D02B00204A
:107FA000CC2E002073B50D460446C8B1C1B10DF109
:107FB0000601FFF739FBB0B1BDF806300B48666823
:107FC000142202FB030001210C3000F087FA6368E1
:107FD0002E600C336B600123A372002002B070BDD1
:107FE00048F20460FAE748F20960F7E7042E00203F
:107FF00013B50446A8B10DF10601FFF715FB98B1C2
:10800000BDF806200B4B142101FB0233DA6872B174
:10801000A27A62B1DA680020013ADA60A07202B096
:1080200010BD48F20460FAE748F20960F7E748F249
:108030000560F4E7042E002002230022FFF70EBEA5
:1080400018B103230022FFF709BE48F2046070470D
:10805000114B1B7813B50446ABB14FF6FF73984232
:1080600014D001A8FFF75CFA98B10523037001232F
:108070000371C48001A9094800F047F9FFF7E0FD4A
:10808000002002B010BD48F20160FAE748F2036038
:10809000F7E748F20760F4E7E02D0020B82E002053
:1080A0000F4B1B7807B5A3B101A8FFF739FA98B1B8
:1080B0000623037001A90B4800F027F90A4B1A7830
:1080C0000AB101221A73FFF7BBFD002003B05DF86F
:1080D00004FB48F20160F9E748F20760F6E700BFE9
:1080E000E02D0020B82E0020E82D002007B5ADF8C7
:1080F0000600ADF804100DF1060001A9FFF7E6FA3D
:1081000003B05DF804FB07B51346ADF806000A4658
:1081100000200DF10601FFF7D9FA03B05DF804FB6A
:1081200007B51346ADF806000A460DF1060000211A
:10813000FFF7CCFA03B05DF804FB20B119B1036876
:108140000B600020704748F2046070472DE9F84F3B
:108150003C4B1B780446002B6DD000286ED0DFF816
:10816000E890122200210AF082FE032323804FF0C0
:10817000000A4F4614264FF00108D9F80410B9F848
:108180000AB0B9F808500846FFF7D8F9032808BF25
:108190002388628804BF03F1FF33238006FB0A7340
:1081A0005D44DB681344638023899B446389A4F89E
:1081B00008B0ADB22B446381C5F58065A389ADB22B
:1081C000AB4238BFA58101F1080501F58051A942F4
:1081D00029D92B68013326D02846FFF7DFF801287C
:1081E0000AD0022815D00028F1D1A3880133A3803A
:1081F0000AE04FF0010AC0E7E3880133E380E38936
:108200006A8803331344E3816B88033305EB8305EA
:10821000DDE7E38884F810804D1BE189013301EB31
:10822000A501E380E18109F11409BAF1000FE0D062
:108230000020BDE8F88F48F20160FAE748F20460D8
:10824000F7E700BFE02D0020042E002010B561B13B
:10825000B2FBF3F403FB1424A4B244B9C0E9001444
:1082600084608281C381204610BD0E20FCE7092076
:10827000FAE782B050E8022FC188B2EB324F4FF0DC
:10828000000317BF92B241EA014142EA014104E012
:108290004268B2EB324F08BF012340E80212002AC5
:1082A000E8D18DF807309DF80730002B0CBF112066
:1082B000002002B0704737B550E8013F9DB2C48935
:1082C00025448489A54228BF2D1B0489A54202BFED
:1082D000BFF32F8F002207E0C5EA030540E80154F1
:1082E000002CE9D14FF001028DF803200193019A8F
:1082F0000A609DF8031001F0FF0321B1006810FA35
:1083000082F003B030BD1846FBE70A884B889A42DA
:1083100009D150E8012FC2EA024240E80123002BB4
:10832000F7D1012070470020704737B550E8023F71
:108330001FFAA3F5C488A54202BFBFF32F8F002206
:108340000DE0C48925448489A54228BF2D1BC3EABA
:10835000054540E80254002CE8D14FF001028DF8A9
:1083600003200193019A0A609DF8031001F0FF03B6
:1083700021B1006800EB124003B030BD1846FBE7A6
:108380000A884B889A4209D150E8022FC2EA224259
:1083900040E80223002BF7D10120704700207047EE
:1083A00001F01F024B090121914000EB830000F016
:1083B00065B84B0910B501F01F040121A14000EB85
:1083C000830000F04FF8E04000F0010010BD01F024
:1083D0001F0301229A404B0900EB8300D14300F0B8
:1083E00065B84B0901F01F0150F82300C84000F0A8
:1083F000010070472DE9F0474F1E7F0980460E4669
:108400000137002558F8254008EB8509E44394FA24
:10841000A4F4B4FA84F44FEA451A202C06D10135AD
:10842000AF42EFD834462046BDE8F0875444A64218
:10843000F5D921464046FFF7BCFF0028F3D0D9F814
:108440000040E44394FAA4F4B4FA84F4E5E710B5E8
:10845000034653E8000F0A4643E8002494F0000F57
:10846000F7D110BD10B5034653E8000F40EA0102F2
:1084700043E8002494F0000FF6D110BD10B5034678
:1084800053E8002F42EA010043E8000494F0000F93
:10849000F6D110BD10B5034653E8000F00EA010203
:1084A00043E8002494F0000FF6D110BD10B5034648
:1084B00053E8002F02EA010043E8000494F0000FA3
:1084C000F6D110BD10B5034653E8000F00EB0102D2
:1084D00043E8002494F0000FF6D110BD10B5034618
:1084E00053E8002F02EB010043E8000494F0000F72
:1084F000F6D110BD10B5034653E8002FA2EB0100E2
:1085000043E8000494F0000FF6D110BD0121FFF7FD
:10851000A9BF0121FFF7B2BF0021FFF7BBBF10B514
:1085200090B1D0E9012301689B1ADBB20A60013BDC
:10853000DBB2FF2B026802D10020107110BD116860
:108540004C1C14600B70F2E70E20F7E737B50546B8
:1085500000240DF107008DF80740FEF797FD2A680B
:108560006B68116899420ED9481E106011F8013CE1
:10857000EC68298A01FB0344AB6811791B1ADBB252
:10858000994238BF13719DF80700FEF7A3FD2046FE
:1085900003B030BD37B5054600230DF107000C468A
:1085A0008DF80730FEF772FD2A681368591C1160B8
:1085B000E968641A298AB4FBF1F41C709DF807007D
:1085C000FEF788FD03B030BD826810B504462AB1BD
:1085D00043690168006998470023A36010BD0EB489
:1085E00003B5039921B104AB01AA019300F076F819
:1085F00002B05DF804EB03B070470A2938B50446B1
:108600000D4602D10D21FFF7F8FFA3682268591C1F
:10861000A160D554D4E901329A4204D32046BDE882
:108620003840FFF7D1BF38BD2DE9F84F9846DDE956
:108630000A43154682460F460A464FF00109AA42F0
:108640000FD2C14538BFC14613F0010B01D16CB93F
:1086500000240126B8F1010F1BD908F1FF386E4341
:10866000F8E709F10109B2FBF5F2E8E79B070ED53F
:10867000B8F1000F0CBF30262026A145E9D2013CFD
:1086800031465046FFF7B9FF002CF6D1E0E720262F
:10869000F3E7B7FBF6F39D42E1D9DFF83C80B7FB87
:1086A000F6F3504618F8031006FB1377FFF7A5FF03
:1086B0003346AB42B6FBF5F6F1D2BBF1000F02D068
:1086C0000CB1A14501D3BDE8F88F20215046013CF3
:1086D000FFF793FFF4E700BF856003002DE9F74F34
:1086E000054617468846002900F03E8118F8011B10
:1086F00049B92B7B002B00F03781284603B0BDE839
:10870000F04FFFF761BF252940F0B780002698F8A9
:1087100000302D2B424608F1010823D0302B24D005
:108720002B2B25D000242A2B02F1010123D13B68F9
:108730001A1D1B683A601C440A4613782E2B26D15A
:1087400001324FF0000A104610F8011BA1F1300C65
:10875000BCF1090F1DD80A2303FB0A13A3F1300A49
:108760000246F0E746F00106D1E746F00206CEE702
:1087700046F00406CBE711F8013CA3F130000928CC
:10878000DBD80A2202FB0434303C0A46CBE74FF028
:10879000000A12F8011B01F0FB0068289046F8D08F
:1087A000782909D86F290CD8632962D022D82529C5
:1087B00063D0582900F0888098F80030002B95D1BC
:1087C00097E770390829F7D801A353F821F000BFC3
:1087D00043890200B9870200B9870200D9880200E4
:1087E000B9870200B7880200B9870200B987020082
:1087F000C9880200642901D06929DDD13A68D2F81C
:108800000090111D89EAE9723960A2EBE9724FF01C
:10881000010B092A35DCD34538BFD3462CB1B9F159
:10882000000F01DB720700D5013CB30702D5BAF196
:10883000000F03D0F00701D44CBB0024B9F1000FA6
:108840002DDAC9F100092D212846FFF7D6FE06F0E2
:108850000302022A04D1BAF1000F01D11CBB00248B
:10886000CDE9004653460A2249462846FFF7DCFE7A
:10887000A2E73B681A1D19783A602846FFF7BDFE4B
:108880009AE70A230BF1010BB2FBF3F2C1E7A34510
:10889000D4D220212846013CFFF7AFFECCE7710778
:1088A000D5D52B21D0E7A345DAD230212846013C8B
:1088B000FFF7A3FED2E73968CDE900460A1D3A600A
:1088C00053460A220968D0E739680A1D3A60CDE9A3
:1088D000004653461022F5E73B681A1D3A6016F031
:1088E0000106D3F8009024D1B9F1000F03D0484617
:1088F0000AF012FB0646B4421DD809F1FF3919F8F7
:10890000011F00293FF458AF2846FFF776FEF6E72F
:1089100028460136FFF771FE19F806100029F7D135
:10892000A642BFF449AF20212846013CFFF765FE6F
:10893000F6E70026F0E720212846013CFFF75DFE20
:10894000D9E73B681A1D3A60302128461C68FFF7BA
:1089500054FE78212846FFF750FE00220823CDE977
:1089600000322146102280E703B0BDE8F08F00BF3F
:1089700013B50B46114680B9104B1148114AC01A65
:108980000E23C0080093104B0004104940F0010072
:1089900002F0F3FC0E2002B010BD4BB9074B0848A3
:1089A0000B4AC01AC0080E2300930004064BECE7E4
:1089B00003601B6802B0BDE810401847945E0300D6
:1089C000045F030095600300516203009A60030096
:1089D000C96003002DE9F743DDF8288088B93E4BD4
:1089E0003E483F4AC01AC0080E243E4B0094000483
:1089F0003D4940F0010002F0C0FC204603B0BDE854
:108A0000F0834AB9344B3548384AC01AC0080E249E
:108A1000344B00940004EBE7D0F800E0BEF1000F07
:108A200009D12D4B2D48324AC01AC00808242D4BBD
:108A300000940004DCE74BB9274B28482D4AC01AA4
:108A4000C0080924274B00940004D1E74568D5F8F5
:108A50000490B3FBF9F509FB15354DB11E4B1F48CA
:108A6000254AC01AC00809241E4B00940004BFE721
:108A70008D0709D0184B1948204AC01AC008102485
:108A8000184B00940004B3E712F0030F09D0124B07
:108A900012481B4AC01AC0081024124B009400044C
:108AA000A6E7C568A9420DD34D1EEC180569AC4276
:108AB00008D8CDF82880DEF80C40A44603B0BDE805
:108AC000F0436047044B05480E4AC01AC008102402
:108AD000044B009400048BE7945E0300045F0300E2
:108AE000956003003E6203009A6003001761030073
:108AF000C3600300D66003001D61030047610300EB
:108B00005F61030082610300F7B580B92A4B2B48EF
:108B10002B4AC01AC0080E242A4B009400042A498C
:108B200040F0010002F029FC204603B0F0BDD0F86F
:108B300000C0BCF1000F09D11F4B2048234AC01AC6
:108B4000C00808241F4B00940004E8E74AB91A4BF8
:108B50001A481F4AC01AC00809241A4B009400047E
:108B6000DDE74568D5F800E00EF1FF350D4209D08C
:108B7000114B1248174AC01AC0081024114B009418
:108B80000004CCE7C568A9420CD34D1E0EFB02546D
:108B90000569AC4206D8DCF81040A44603B0BDE835
:108BA000F0406047044B05480B4AC01AC008102427
:108BB000044B00940004B2E7945E0300045F0300DA
:108BC000956003002B6203009A600300C3600300FA
:108BD000D6600300A9610300CF61030029DF70475D
:108BE00028DF704770B503689E6886B004460D465E
:108BF0006EB11422002168460AF039F9A368059382
:108C0000237901952BB1012B0DD06846B04706B0F2
:108C100070BD01238DF8003023690293E36803934C
:108C200063690493F1E702238DF80030E3681B03C6
:108C30000293F5E70846704700207047024B187A08
:108C4000003818BF01207047802F0020034B187A8E
:108C50000122B0FA80F05A7440097047802F00203A
:108C600008B510461A460AF0D9F8002008BD0000E1
:108C700008B51422002104480AF0F9F80348FFF768
:108C8000F8FA002008BD00BF802F0020702F0020C0
:108C900010B5094C094B43602046FFF737FC40B93B
:108CA00009F05EFD064920741C2306488C22FFF75C
:108CB000CDFA002010BD00BF802F002064620300A9
:108CC000E42E0020702F002038B5234D234C2B7A42
:108CD0003BB923492348FFF728FB206008B96860A7
:108CE00038BD022324682B72237973B1012B24D061
:108CF00020460321FFF776FF00232B726B60184993
:108D00001848BDE83840FFF73BBBD4E90523D21A29
:108D1000B2F5805FD4E9031028BF4FF48052920867
:108D2000012A38BF012219441844FFF757FF50B1F8
:108D30001128DDD101232B72D2E7D4E903031844B3
:108D4000FFF74EFFF3E72B7C002BC9D1BDE838407D
:108D5000022000F009B800BF802F0020982F0020CB
:108D6000942F0020702F002038B5234C237A002B3D
:108D700041D0022B09D1032830D0204B00221B68A0
:108D8000E2601A793AB1012A22D0637C7BBBBDE84C
:108D90003840FFF799BFD3E905128D1AB5F5805F0A
:108DA00094BF521902F580529A619142EDD1022886
:108DB0004FF0000308BF19462372104B18BF0D2156
:108DC0001868FFF70FFF0E490E48FFF7D9FADCE7E6
:108DD0001A6901321A615B699A42E7E7E368013375
:108DE000082B01D8E360D0E70023E360DFE7BDE8AC
:108DF000384009F0A5BC38BD802F0020982F0020F6
:108E0000942F0020702F0020831E012B01D8FFF724
:108E1000ABBF704700F0FD03012B08D1044B0022CB
:108E20005A74421E504250411874FFF74DBF7047AC
:108E3000802F002010B5064C201DFFF767FB28B9D6
:108E4000637C1BB9BDE81040FFF73EBF10BD00BFFB
:108E5000802F00202DE9F34180460D46104801A9DE
:108E600016461F46FFF727FA0446B0B11822002124
:108E7000043009F0FCFF2D0B0123237101A90848E0
:108E8000C4F80080A760E5606661FFF73EFAFFF76F
:108E9000D1FF002002B0BDE8F0810420FAE700BF56
:108EA000702F00202DE9F34180460F460F4801A99D
:108EB00016461D46FFF7FFF90446A8B11822002107
:108EC000043009F0D4FF089BA36001A9C4E903673B
:108ED0000648C4F800806561FFF717FAFFF7AAFF9C
:108EE000002002B0BDE8F0810420FAE7702F0020D6
:108EF0002DE9F84FB0F806A04579D2F800B09DF8FA
:108F000028900AFB05F5043D88460BEB0301A942B6
:108F100003F1040488BFA5EB030BB4FBFAF6074684
:108F20000AFB1644C2F800B04EB9AAEB04055D4531
:108F300028BF5D46BBF1000F04D1BDE8F88F3F6844
:108F4000013EF1E7043408EB06003C442A46B9F13F
:108F5000000F0DD02146ABEB050B09F05FFFDA45A2
:108F60002E443F6855464FF0000428BF5D46E1E7B8
:108F700001462046EFE7FFF7D2BAF8B54679014639
:108F8000721E0546002393422D6803D30024A64297
:108F900002D8F8BD0133F6E70F682846FFF7FAFA62
:108FA00001343946F3E72DE9F843068ACD1C07461C
:108FB000FFF7CCFA043E35440446B5FBF6F5F0B1B4
:108FC0004FF48073EDB28380C680013D0760814617
:108FD0004FF00008A84512D23846FFF7B7FA064608
:108FE00048B163790133637108F10108C9F80000E1
:108FF00007608146EEE72046FFF7BFFF3446204674
:10900000BDE8F88301210430FFF768BA10B50121EB
:1090100004460430FFF76EFAC0B220B92046BDE81E
:109020001040FFF7AABF10BD1FB5039200220092A7
:1090300003AAFFF75DFF05B05DF804FB1FB50392BF
:109040000122009203AAFFF753FF05B05DF804FB6D
:10905000064B10B500241C70054B1C60BFF35F8FDE
:109060000449054800F0E0F8204610BDA42F002078
:10907000A82F00209C6203009C2F00200268136828
:109080005268934291BFD01A80680130801888BF1F
:10909000C01A7047F8B51546026817681668526816
:1090A000964284BF82680132961B0B46C2684168B3
:1090B000B542044607FB02110BD86A43184609F073
:1090C000ADFEA3683D449D4288BF002523681D6016
:1090D000F8BD06FB02F73A46184609F09FFEE26823
:1090E0006168AD1B6A43384409F098FEEEE70368F7
:1090F00081681A685B688B4234BF01330023D31A3E
:1091000058425841704773B5002304460DF10700DB
:109110000D468DF80730FDF7B9FF2046FFF7E7FF52
:1091200010B1237C002B3BD12368A1685E685A688C
:109130008A4234BF013200225A6028B11A688A423A
:1091400034BF013200221A60E2686368511E0729A9
:1091500020D8DFE801F004101F141F1F1F182A7801
:109160009A552046FFF78AFF23689A68824200D208
:109170009860002415E02A8823F81620F1E72A6871
:1091800043F82620EDE7D5E9000103EBC603C3E968
:109190000001E6E7294602FB063009F03FFEE0E762
:1091A00004249DF80700FDF795FF204602B070BD2E
:1091B0007FB5054601911446AAB10DF10F000026B6
:1091C0008DF80F60FDF762FF2846FFF757FFA042BA
:1091D00001990BD322462846FFF75CFF34469DF8E1
:1091E0000F00FDF777FF204604B070BD0524F6E7B9
:1091F00037B5054600240DF107008DF80740FDF74F
:1092000045FF2B681C609DF807005C609C60FDF7C3
:1092100061FF03B030BD836800225A60C3E90422B5
:109220009A60DA601A6070470B684A68436093423C
:1092300008BF0023016008BF43607047436843B123
:109240000268916852680B449342436004BF002354
:109250004360704770B5446806460D46206818B1F3
:10926000B3682946984718B923682B60256070BDFC
:109270002468F3E74368186808B102681A60704709
:109280004368186870474368186800B97047884297
:1092900003D102681A600120704703460068F4E7B2
:1092A00010B50D49A1F59472914201D800200FE04C
:1092B0008C1AE30F03EBE4035B1002EBC30452F8D8
:1092C0003330834205D802D204F10802ECE760682B
:1092D00010BD2146E8E700BFA867030008B5FFF707
:1092E000DFFF024B002808BF184608BD6B6603006D
:1092F00038B5074C051E04F1080318BF1C46236847
:109300002BB11A6822605B6828469847F7E738BD9A
:10931000B42F002020B9054B01225A70FFF7E8BF97
:10932000012802D1014A9070F8E77047AC2F002065
:1093300020B9034B01225A70FFF7DABF704700BF14
:10934000AC2F002038B50E4C2378B3B90D486360BC
:10935000A3602361E36000F0C9F9054609F000FA53
:1093600008B900F0CFF901232370074BD3F800347C
:109370000BB10123A370284638BD8525F5E700BF52
:10938000AC2F0020159302000000014037B50D4CB2
:1093900000230DF107008DF80730FDF777FEE36835
:1093A000013BE360E36833B9074BD3F8005415B9C8
:1093B00000F0BAF9A5709DF80700FDF78BFE03B029
:1093C00030BD00BFAC2F002000000140012813B5C4
:1093D0000CD0032820D038B9134B0122C3F88020C9
:1093E000BFF34F8FBFF36F8F02B010BD0F4C002340
:1093F0000DF107008DF80730FDF748FE23780BB913
:10940000FFF7A0FFE3689DF807000133E360012345
:10941000A370FDF75FFEE7E700F074F902B0BDE866
:109420001040FFF7B3BF00BF00E100E0AC2F002009
:1094300031DF70471FB500238DF807000DF10F00D5
:109440008DF80F30FDF722FE09F08AF950B909486E
:109450000DF10701FFF757FE0648FFF748FE08B178
:1094600000F0EAFB9DF80F00FDF734FE05B05DF853
:1094700004FB00BF345E030007B520B103280DD004
:1094800003B05DF804FB104B1B78012BF8D100F002
:10949000D3FB03B05DF804EB00F0D6BB00230DF165
:1094A00007008DF80730FDF7F1FD07480378012B21
:1094B00005D10649013000F07FFB00F0ABFB9DF8C1
:1094C0000700FDF707FEDBE71030002035940200AF
:1094D00013B5124C2378FBB9114A8DF807300028D8
:1094E00008BF10460288A4F801200DF10700FDF71F
:1094F000CDFD09F035F930B90A49601C00F05CFB7C
:1095000040B900F087FB9DF8070001232370FDF7A9
:10951000E1FD002002B010BD8520FBE710300020E7
:10952000B26703003594020007B500230DF1070070
:109530008DF80730FDF7AAFD09F012F918B900F00F
:109540007BFB00F081FB9DF80700FDF7C3FD04489D
:10955000FFF74EFE034B00221A7003B05DF804FBC8
:10956000345E0300103000202DE9F7430024DFF8BB
:10957000589005460E46A0460DF107008DF807806D
:10958000FDF784FD09F0ECF8074638B93246294664
:109590004846FFF70DFE044600F03CFB9DF807002F
:1095A000FDF798FD47B131462846FFF741FF42F2EB
:1095B00007039842044605D0022CDDD0204603B0B4
:1095C000BDE8F0830524F9E7345E0300F8B50546ED
:1095D0000C4604B9F8BD402C264628BF4026F7B2F9
:1095E00039462846FFF7C0FF0028F9D1A41B3544AF
:1095F000EFE700001FB503788DF800304368019352
:1096000083688DF80830C368054A0393054B6846A4
:1096100053F8213052F82110984705B05DF804FB4B
:1096200014300020183000201FB503788DF800306A
:109630004368019383688DF80830C368054A039333
:10964000054B684653F8213052F82110984705B071
:109650005DF804FB1430002018300020F0B5194BE1
:1096600090F800C091F81DE043F82C20164B1646E8
:109670000A6943F82C20154B03F80CE00C4607460A
:109680000FCC89B06D460FC594E80F0085E80F0038
:10969000CDF810C0BEF1000F09D0002E0C4A69466B
:1096A00008BF3246381D01F0D3F809B0F0BD002ED6
:1096B000084A694608BF324607F10C0000F0AAFECE
:1096C000F3E700BF18300020143000201C300020C9
:1096D000F59502002996020000F18040002382B037
:1096E000036003680193019B02B07047044A137939
:1096F00023B901211060918018467047852070477A
:1097000020300020074B1A68D20704D4C02283F807
:10971000002301221A604FF080430122C3F818256C
:10972000704700BF00E100E04FF0804208B502231F
:10973000C2F808334FF48270FFF7CEFF0123D360E5
:10974000D2F81834DB03FBD408BD00004FF0804191
:1097500010B5D1F8003163B14FF48070FFF7BCFF52
:109760000D4B58790122C1F8082310B95A711B68B2
:1097700098474FF08042D2F8043163B14FF48270C1
:10978000FFF7AAFF0223C2F80833034BBDE81040DD
:109790001B680120184710BD2030002000F18040D8
:1097A00000F5C040002382B0036003680193019B71
:1097B00002B07047800000F1A040D0F8002722F4EA
:1097C0004032C0F80027D0F8003743EA0141C0F822
:1097D00000177047054B4FF0FF32072843F8202051
:1097E00084BFC01880F84820704700BF2830002090
:1097F00010B5184991F8583053BB4FF0FF3222FA98
:1098000003F0C00748BFC81803F1010348BF80F840
:109810003020202BF3D10024E0B20134FFF7DAFF2F
:109820000C2CF9D10C4B0022C0204A6583F80603AA
:10983000402018604FF4BE70FFF7B0FF074B4FF0A9
:109840000040C3F80403012381F85830104610BDCE
:109850000820FCE72830002000E100E00060004024
:10986000034B93F85800003818BF0120704700BF21
:1098700028300020F0B5394E331893F93030002BE2
:1098800069DA8D78C5F34005002D0BBF082300234E
:109890000C240824A34201D10420F0BD56F8237003
:1098A000013743D137185CB246F8232087F830409F
:1098B00015B9F21882F848008A78550716D4D707E8
:1098C00036D5820002F1A042D2F8005725F00205F9
:1098D000C2F80057224FC50800F0070C012202FA17
:1098E0000CF217F805C042EA0C027A558A780D7816
:1098F00012F0020225D09B0003F1804303F5C04320
:109900000002D3F8102522F4473222F44072C3F843
:1099100010252D04D3F8102500F4F85005F4403537
:1099200028431043C3F810050020B6E70133B1E720
:109930004D7800F5E0724FF0A047AD0047F8225097
:10994000C8E7083C46FA84F494F8500040EA8515CC
:1099500084F85050E8E708209FE700BF2830002037
:109960007C30002038B5204C251895F93020072A86
:1099700018DD083A44FA82F494F850309B09032B1E
:109980000BD14FF0A043D3F81015C14001F00101F5
:109990000231BDE83840FFF70DBF012B0CBF02219B
:1099A0000321F6E7D3B2072B1DD8930003F18043C0
:1099B00003F5C043D3F8100540F00100C3F81005CB
:1099C00002F1400040B2800080B2FFF7E7FE51B1E3
:1099D00095F9303054F823302BB1012303FA02F209
:1099E000024BC3F8042338BD28300020006000403B
:1099F0004FF0A043D3F8103523FA00F000F0010037
:109A0000704700002DE9F74F00244E4D01944FF4AC
:109A10008072012102F1804303F5C04390B21B68BC
:109A2000012B06D1D5F804330B4202D0FFF7B6FE66
:109A30000C430432B2F5907F4FEA4101EAD1414B29
:109A4000D3F87C31012B0CD14FF4BE70FFF7A6FE8A
:109A50004FF0A04344F00044D3F820250192C3F80E
:109A60002025E3B2D3B1384F00250126344210D06F
:109A7000AB0003F1804303F5C043D3F81005D3F8DE
:109A8000101557F8253023B1C1F30141C0F304206C
:109A900098470135082D4FEA4606E7D1002C48DAF1
:109AA000294D4FF0A048294E4FF00009012716F923
:109AB000013B5A1C31D0C3F3C20202A90A44DCB2F2
:109AC00012F8042C03F03F0A03F0070307FA03F32C
:109AD0001A4222D00AF5E073504658F82330C3F3F7
:109AE000014BBBF1020F0CBF03210221FFF762FE05
:109AF00007FA0AF3C8F8203505EB0A0393F930306A
:109B000055F823304BB1A109032904D0BBF1020F52
:109B100012D1012901D15046984709F10109B9F143
:109B2000040FC4D1D8F820350193C8F82035002B94
:109B3000B9D103B0BDE8F08FBBF1030FEDD102291D
:109B4000E8E700BF006000402830002078300020A7
:109B5000014B1B68184700BF843000200E4B984211
:109B600037B50C4602D0002003B030BD00230DF104
:109B700007008DF80730FDF789FA084B1D7915B9F4
:109B800001221C601A719DF80700FDF7A3FA002D51
:109B9000E9D01120E8E700BF002000408430002019
:109BA000034B984201BF034B00221A601A717047A1
:109BB000002000408430002010B5124C2378FBB9FF
:109BC000114B1960037813F0010F104B1EBFD3F82F
:109BD000042542F00102C3F80425D3F8002222F044
:109BE0000102C3F800224378094A5B01DBB282F824
:109BF0000D334FF40053136001232370002010BD78
:109C00008520FCE7903000208C30002000D0004000
:109C100000E100E0074B0022C3F8002182B0D3F836
:109C200000210192019A0122C3F804231A6002B0B4
:109C3000704700BF00D00040024B0122C3F8082348
:109C40005A60704700D00040084B0122C3F8082337
:109C50005A60074B4FF40052C3F88020BFF34F8F78
:109C6000BFF36F8F034B00221A70704700D0004083
:109C700000E100E090300020074B0022C3F80021F3
:109C800082B0D3F800210192019AD3F80805034B62
:109C90001B68C0B202B0184700D000408C300020D2
:109CA0000023435082B043580193019B02B0704798
:109CB0000B7B032B2AD8DFE803F022261A028B68DD
:109CC0005A0304D5D0F84C350A699A4207D18B68FB
:109CD0005B031BD4D0F84C354A699A4216D0002356
:109CE0000622C0F80035C0F8002518467047D0F8A5
:109CF0004C350A699A42F2D1D0F83C35ECE7D0F8FD
:109D00004C350A69E9E7D0F83C35FAE7012070479D
:109D1000F0B5594D594CD5F8243187B0FBB14FF40B
:109D200092712846FFF7BCFFD5F80431BBB9A36890
:109D3000C5F808330223A360A368C5F80433D5F837
:109D400060311BB1D5F800329F0503D44A4B012284
:109D50001A625A61012384F82E3007B0F0BDD5F89D
:109D60000431002B50D044484FF48271FFF798FF24
:109D7000236A5E0609D494F82E3033B93F49FFF7C1
:109D800097FF80F0010084F82E00236A5D0720D43D
:109D90003B4E0FCE01AD0FC5336837482B604FF4F3
:109DA000B071FFF77DFF4FF4AE71FFF779FF94F8C4
:109DB000303013B194F82E305BB12F4B0022C3F832
:109DC0000022A2602F4AC3F808232F4B0822C3F8B1
:109DD0008021294AD2F8C434C2F8C43498073DD54A
:109DE00001238DF8003094F830300BB984F82F300F
:109DF000236A5B0703D594F82E30002BADD0D4E94D
:109E0000003168469847A8E71B484FF4A471FFF754
:109E100047FF237B83B91A4F0FCF01AE0FC63B68B4
:109E2000336094F83030002BD3D1C5F80032A360F2
:109E3000144BC5F80833C8E74FF40073C5F8003277
:109E400040F20223A36003F1CE73C5F80833A36880
:109E5000C5F804330123AB602B627EE7590701D5B7
:109E60000223BEE7DA0701D50323BAE794F82E30C0
:109E7000002BB6D00423B4E700300040943000201B
:109E8000A030002002029C0100E100E02DE9F84F23
:109E90000679304D4FF0340A0AFB06FA05EB0A0743
:109EA0009B4697F82D3080460C469146002B4DD1AD
:109EB00029490068FFF752FE002849D12168637BD9
:109EC00087F8323001F5E0724FF0A043B860C7F870
:109ED00004B087F82F0087F8300040F20C6745F88F
:109EE0000A9043F82270626802F5E07C43F82C7017
:109EF000D8F80030C3F80815C3F80C25A268C3F8D9
:109F00002425B9F1000F14D0227B43F3073152010D
:109F10000029C3F30733D2B213DB104C671887F85C
:109F200000230122490903F01F0302FA03F344F856
:109F30002130342303FB0655012385F82D30BDE87D
:109F4000F88F074903F00F03CA54F2E70820F6E739
:109F50001120F4E794300020119D020000E100E0A0
:109F600014ED00E0036802790621C3F80015044BE4
:109F7000342101FB0233022283F82D20704700BFF9
:109F8000943000202DE9F843DFF8C88290F804905F
:109F90000468342606FB0986002386F82E30CB6839
:109FA00003F06043B3F1005F0D46174603D010265F
:109FB0003046BDE8F883A64BC4F8083396F82F3036
:109FC00023B1B368C4F804331126F1E712F0140F7B
:109FD0000CBF0123002386F82F308E46BEE80F0009
:109FE00006F10C0CACE80F00DEF80030CCF80030C5
:109FF000C7F3001386F8303037626B78C4F88835C1
:10A0000020464FF48271FFF74BFE4FF49271FFF739
:10A0100047FE4FF4B071FFF743FE4FF4A471FFF712
:10A020003FFE17F0010318BF0123C4F8503517F0A5
:10A03000020318BF0123C4F840352B78032B00F22C
:10A04000B580DFE803F084A069022B6903F0604368
:10A05000B3F1005FABD14FF48073C4F80032EA680B
:10A060006B68C4F844254FF4A871C4F84835FFF76D
:10A0700017FE01232362A360D4F85031002BFBD0DC
:10A080004FF4A8712046FFF70BFEAB682A69C4F8AD
:10A090004425C4F84835342303FB09834FF4802258
:10A0A0009A60082300263A0704D42A78032A1CBFA2
:10A0B0000122E250342303FB09F308EB030258F8B2
:10A0C0000330002B75D10125D4F84821D4F8043190
:10A0D000002B40F08980003A18BF0122D4F82431C7
:10A0E000002B00F088804FF492712046FFF7D8FDD6
:10A0F000D4F86011D4F8003209B1980504D425626F
:10A1000065610029E0D00022D90574D54FF4A4710F
:10A110002046FFF7C5FDD7E76B68EA68C4F8442519
:10A12000C4F848352B6903F06042B2F1005F7FF458
:10A130003EAFAA68C4F834354FF48453C4F83825C8
:10A14000C4F80032342303FB0983022212E06B6857
:10A15000EA68C4F8442517F0200FC4F848354FF0DA
:10A1600034030BD04FF48072C4F8002203FB098340
:10A170004FF480229A600123236292E74FF4007229
:10A18000C4F80022DFE76B68EA68C4F83425C4F835
:10A1900038354FF48053C4F80032342303FB09836D
:10A1A00002229A600123236200237BE7082307260B
:10A1B00079E77B0744BF002393607D0606D43423F0
:10A1C00003FB09839A6842F002029A60342303FB7E
:10A1D0000988D8F8083043F40073C8F80830D8F874
:10A1E0000830C4F80433E3E64FF482712046FFF7E9
:10A1F00057FD012272E7002A3FF466AF3421D4F8FC
:10A20000C434C4F8C43401FB0982002082F82F0052
:10A2100093B113F0010F14BF4FF40246032648F226
:10A22000012213F0020F18BF164613F0040F48F274
:10A23000022318BF1E46BBE67B063FF5B9AE09FBFD
:10A2400001812046FFF734FD002808BF0326AFE652
:10A2500002029C01943000200023435082B04358F6
:10A260000193019B02B070470A4610B54FF48E71FE
:10A27000FFF7F2FF136A9168C95C136A0133136236
:10A28000C0F81C1510BD8B690A4610B54FF48471D7
:10A2900023B9FFF7E1FFD0F8183510BDFFF7DCFF59
:10A2A000536AD168D0F81805C854536A0133536211
:10A2B000F3E700001FB501238DF80030044BCDE912
:10A2C0000110D3E900126846904705B05DF804FB21
:10A2D000C830002030B54D4DD5F804339A0585B00F
:10A2E00051D5D5F82431002B4DD04FF4927128462A
:10A2F000FFF7B2FF4FF40173C5F80833444B93F8EE
:10A3000029200AB901226A60404902228DF8002002
:10A31000D1F88024C1F8802403929A690292DA6805
:10A3200001920022C3E906226846D3E90012904751
:10A330003648D0F81C315BB1354A5169136A9942ED
:10A340004DD992F82830002B49D11146FFF78CFFE8
:10A350002E48D0F84431002B56D04FF4A271FFF7AD
:10A360007BFF2B4B93F829200AB1012202609A69E6
:10A37000002A49D0586AD96800229A6105B0BDE820
:10A380003040FFF797BFD5F804335B07D0D5D5F839
:10A390000831002BCCD01E4C1C482146FFF773FF20
:10A3A000636AA2699A42C3D1E369E1684BB1A361D0
:10A3B0002369E3600023606AE3616362FFF77AFF69
:10A3C000B6E794F829300BB901236B600F4B4FF4BB
:10A3D0000172C3F808230023606AA361EEE70B480B
:10A3E0004FF48E71FFF738FF5369002BB0D05169DD
:10A3F0000291002391688DF8003001915361684605
:10A40000D2E900139847A3E705B030BD0020004013
:10A41000C83000202DE9F843534D90F804802C23D8
:10A4200003FB0853064693F82A300C469146002B4E
:10A4300040F096804D490068FFF790FB07460028E2
:10A4400040F0908022683068511C0BD04FF0A04142
:10A4500001239340C1F8083502F5E0734FF0030C77
:10A4600041F823C061684B1C1FBF01F5E0734FF03A
:10A47000A04C4FF0000E4CF823E0A369C0F824353F
:10A4800094F814C0637DBCF1010F4CEA0303C0F8DB
:10A490006C35C0F81415C0F80C251DD1A268531CEA
:10A4A0001FBF02F5E0734FF0A0414FF0000C41F8E0
:10A4B00023C0E368591C0BD04FF0A04C01219940F8
:10A4C000CCF8081503F5E0714FF0030E4CF821E0CD
:10A4D000C0F80835C0F810252C2202FB08F2AB1892
:10A4E000C3F804902369AB50B9F1000F20D04FF4AA
:10A4F0008E71247FFFF7B0FE4FF4A2713068FFF732
:10A50000ABFE32681A4BC2F80433130B42F3073226
:10A510006101002AC9B21EDB1648841884F80013B2
:10A520000121520903F01F0301FA03F340F822301E
:10A5300033680422C3F800252C2303FB08530022B0
:10A54000C3E9062283F829205A61012283F82A20D0
:10A550003846BDE8F883084A03F00F03D154E7E713
:10A560000827F5E71127F3E7C8300020D5A202003D
:10A570008000020000E100E014ED00E0F8B503689F
:10A580000579304C0022C3F800252C2202FB05423D
:10A590005268A2B12C4AC3F808231A0B43F30733BD
:10A5A000002B0CDB02F01F015B0901228A402033E3
:10A5B000264941F82320BFF34F8FBFF36F8F006808
:10A5C000D0F80C65D0F81415D0F80835D0F810255F
:10A5D0004FF0FF37BE42C0F8147518BF06F5E0769D
:10A5E000C0F80C75C0F80875C0F810751EBF4FF0A4
:10A5F000A0474FF0020C47F826C04E1C1FBF4FF07B
:10A60000A04601F5E071022746F82170511C1FBFDA
:10A610004FF0A04102F5E072022641F822605A1C78
:10A620001FBF03F5E0734FF0A042022142F8231050
:10A63000FFF7B6FA2C2303FB0544002384F82A30E5
:10A640006360F8BDC83000208402020000E100E031
:10A650000279044B2C2101FB02335869003818BFE2
:10A6600001207047C83000202DE9F84F064690F8C9
:10A67000048089469246FFF7EBFF044600283CD150
:10A68000204F2C2508FB057B4FF48E71CBF814A0CE
:10A69000CBF80890CBF820008BF828003068FFF743
:10A6A000DBFD3068012383605946FFF7DDFDDBF8F1
:10A6B00004305D461BBB3068DBF814402B6A9C42BB
:10A6C00011D83368D3F81C21002AFBD00122DA60AC
:10A6D00000202C2303FB087700237B61BDE8F88F63
:10A6E00095F828303BB9D0F81C31002BF8D05946EA
:10A6F000FFF7BAFDE2E70F20EBE71120EEE7204677
:10A70000ECE700BFC83000200023435082B043581C
:10A710000193019B02B070471FB501238DF80030F3
:10A72000044BCDE90110D3E900126846904705B00B
:10A730005DF804FBF43000207FB5434AD2F8246171
:10A74000002E60D010464FF49271FFF7DDFF022318
:10A750008DF80030D2F88034C2F880340393D2F8F8
:10A760003C350293394BDA6801920022C3E9062294
:10A770006846D3E9001290473348D0F8443173B1AA
:10A780004FF4A271FFF7C0FF304B9A693AB1002233
:10A79000C3E90622D968D0F83C05FFF7BDFF2A4877
:10A7A000D0F82031ABB14FF49071FFF7ADFF01232A
:10A7B000C360264B5A6962B1D0F84C150291002251
:10A7C00099688DF8002001915A616846D3E900121A
:10A7D00090471D48D0F858319BB14FF4AC71FFF74A
:10A7E00093FF1A4B5A6962B1D0F84C1502910022BE
:10A7F00099688DF8002001915A616846D3E90012EA
:10A80000904704B070BDD2F81031002BB4D04FF493
:10A8100088711046FFF778FF0C4BD2F83C05996918
:10A820008842A9D1DC69D96864B1D2F8005225F018
:10A830002005C2F800521A699C61DA60DE61FFF7F8
:10A840006BFF99E79C61FAE700200040F43000209C
:10A850002DE9F8435A4E90F80480242303FB086343
:10A86000044693F820300D469146002B40F0A3801B
:10A8700054490068FFF772F90746002840F09D80B0
:10A880002A682068511C0BD04FF0A041012393404F
:10A89000C1F8083502F5E0734FF0030C41F823C00E
:10A8A00069684B1C1FBF01F5E0734FF0A04C4FF0DF
:10A8B000000E4CF823E0AB69C0F8243595F814C0BD
:10A8C0006B7DBCF1010F4CEA0303C0F86C35C0F896
:10A8D0000C25C0F814151DD1AA68531C1FBF02F522
:10A8E000E0734FF0A0414FF0000C41F823C0EB683B
:10A8F000591C0BD04FF0A04C01219940CCF8081501
:10A9000003F5E0714FF0030E4CF821E0C0F8083574
:10A91000C0F81025242202FB08F2B318C3F80490F3
:10A920002B69B350B9F1000F2FD04FF488712A7FF3
:10A93000FFF7EAFE20684FF49071FFF7E5FE20680C
:10A940004FF49271FFF7E0FE20684FF4A271FFF719
:10A95000DBFE4FF4AC712068FFF7D6FE23681A497E
:10A96000C3F80413190B43F307335201002BD2B27F
:10A970001CDB1648C51885F8002301225B0901F08D
:10A980001F0102FA01F140F8231023680822C3F8DE
:10A990000025242303FB08660023C6E90633736100
:10A9A000012386F820303846BDE8F883084B01F0D3
:10A9B0000F015A54E9E70827F5E71127F3E700BF2D
:10A9C000F430002039A702001003420000E100E04B
:10A9D00014ED00E0F8B5444C0579242303FB05434E
:10A9E00002465B680068ABB1404BC0F8083340F3E7
:10A9F0000733002B4FEA10310CDB01F01F065B0917
:10AA00000121B14020333A4E46F82310BFF34F8F57
:10AA1000BFF36F8FD0F8003223F02003C0F800326C
:10AA2000242303FB05439B692BB14FF4A271FFF76D
:10AA30006BFE012343604FF4AC71FFF765FE012309
:10AA4000C360242303FB0543D0F858110029FBD031
:10AA5000996919B1D0F844110029F5D00023C0F844
:10AA600000351368D3F80C75D3F81465D3F80825AE
:10AA7000D3F810154FF0FF3C6745C3F80CC518BF5D
:10AA800007F5E077C3F814C5C3F808C5C3F810C5C7
:10AA90001EBF4FF0A0434FF0020C43F827C0771CB5
:10AAA0001FBF4FF0A04306F5E076022743F826705B
:10AAB0004E1C1FBF01F5E0714FF0A043022643F882
:10AAC0002160531C1FBF4FF0A04302F5E07202212A
:10AAD00043F82210FFF764F8242303FB0544002306
:10AAE00084F820306360F8BDF43000201003420089
:10AAF00000E100E00279044B242101FB0233586994
:10AB0000003818BF01207047F430002001F0604386
:10AB1000B3F1005F2DE9F0470646884692463BD1E7
:10AB200090F80490FFF7E6FF0446002836D11D4F49
:10AB30003068242505FB09754FF49071C5F814A001
:10AB4000C5F80880FFF7E0FD4FF4AC713068FFF7FF
:10AB5000DBFD33686A69A968C3F84415C3F8482562
:10AB600001229A606A68DAB9D3F82021D3F8580133
:10AB70001AB90028F8D00F2007E00028FBD10122E5
:10AB8000DA60D3F85821002AFBD0242303FB09778D
:10AB900000237B61BDE8F0871020FBE71120F9E777
:10ABA0002046F7E7F4300020054A4FF0A043105C40
:10ABB000D3F8043523FA00F0C04300F001007047D9
:10ABC000DD670300044B1A5C012393404FF0A04261
:10ABD000C2F80C35704700BFDD670300044B1A5CF8
:10ABE000012393404FF0A042C2F80835704700BFE0
:10ABF000DD67030008B50020FFF7F0FF0120FFF735
:10AC0000EDFF0220FFF7EAFFBDE808400320FFF751
:10AC1000E5BF08B50020FFF7D5FF0120FFF7D2FF01
:10AC20000220FFF7CFFFBDE808400320FFF7CABFAF
:10AC3000074A4FF0A041105CD1F804350122824050
:10AC400022EA03001340C1F80805C1F80C3570472B
:10AC5000DD670300054A4FF0A043105CD3F81035C0
:10AC600023FA00F0C04300F001007047D9670300E9
:10AC70000D2809D00E2809D00F2809D010280CBFA4
:10AC800003204FF0FF3070470020704701207047CD
:10AC900002207047014B185C704700BFD967030062
:10ACA000C20708B501460CD54FF0A0430322C3F8F4
:10ACB0004427C3F84827C3F84C27C3F85027FFF7A9
:10ACC00099FF8B070AD54FF0A0430C22C3F8342715
:10ACD000C3F83827C3F83C27C3F8402708BDF0B5B0
:10ACE00095B01D46164608460C46FEF78BF91A9B92
:10ACF0000D93CDE9086500252B46082205A92046BD
:10AD00000A958DF82C500C95FEF798F9079B029345
:10AD1000069B03939DF814308DF8115003F0030245
:10AD2000012A1DD1BDF81420059DC3F3C203C2F34F
:10AD300083168DF81030B20008230EA92046FEF7C6
:10AD40007DF9C5F3952508AB0093324602AB0EA9F9
:10AD5000284600F0D3FB2046FEF758F915B0F0BDA9
:10AD6000022AF8D1BDF81650C3F3C203C5F3891502
:10AD70008DF810300827082D2E4628BF08263B46A0
:10AD800032460EA92046FEF759F9AD1B08AB02AAC0
:10AD900031460EA8374400F015FC002DEBD1DAE760
:10ADA000014B01221A707047593100207047000092
:10ADB00070B50E4D06460FCD88B06C460FC495E8B1
:10ADC0000F00002E84E80F00094A0A484FF00603DE
:10ADD00008BF002269460093FEF740FC08B1FBF76C
:10ADE00069FF054B1E7008B070BD00BFE46703002B
:10ADF000A1AD0200EC2B00201831002007B5044B58
:10AE00000093044A4023FFF76AFF03B05DF804FB98
:10AE100019AE02001931002038B50D480D4C0E4D09
:10AE2000002323700378EB5CD2B263B10430FFF7E8
:10AE30006DFE08B1FBF73EFF084B1A7812B123787C
:10AE4000002BFBD038BD0C30FFF70EFCF1E700BF44
:10AE5000EC2B0020593100201C300020183100203C
:10AE600008B50848084A0378D35C3BB10430FFF7C3
:10AE7000B1FDBDE808400020FFF79ABF0C30FFF796
:10AE80007DFBF6E7EC2B00201C3000200120FFF7B3
:10AE90008FBF000008B5FFF7F9FF0448042100F058
:10AEA00097FA034B01225A7108BD00BF8C5F030063
:10AEB000002C0020037813F0040216D003F00303E3
:10AEC000012B03D0022B09D0012070470A680088AB
:10AED0000232C0F3831002440A60F5E70B6842882F
:10AEE000023303EB92130B60EEE71046704700004D
:10AEF0002DE9F04FDFF81CA187B00F460023044670
:10AF0000861C0DF1070015468DF80730FCF7BEF8DA
:10AF1000DAF804203A60DAF8083003F580739B1AF7
:10AF20000AF21C470AF583690AF21448B3421AD39D
:10AF30000020002D69D004F00F039B0143F00503AE
:10AF400063F30F00DAF80430DAB2033233444AF81C
:10AF500022009DF80700CAF80430FCF7BBF8012076
:10AF600007B0BDE8F08F01213846FDF7B7FA484633
:10AF7000FDF7CFFA4046FDF7CCFADAF80800029068
:10AF8000C0B203300AEB800002A9FFF793FF029BD7
:10AF900030BBDAB20AEB8202D16803919A1C01330A
:10AFA000DBB20AEB83030292D3F80CB001F0030387
:10AFB000012B22D0022B15D083464046FDF7ACFA78
:10AFC00010B1029BCAF8083059463846FDF786FA98
:10AFD000DAF80830DAF8042003F580739B1AA5E745
:10AFE000D8B2CEE7BDF80E30C3F3891303334FEA6E
:10AFF0001B4B02EB93030293DFE7BDF80C30C3F366
:10B0000083134FEA1B4B1344F5E7A40544F00600F5
:10B0100098E700BF2C320020064B074810B50022ED
:10B020001A70FDF7A8FF044610B90448FEF7F3F8BC
:10B03000204610BD2C320020785E030038680300E3
:10B0400030B50A4C71B10A4A0A49121BD2080023D2
:10B050009A4201D1002030BD31F82350854202D000
:10B060000133F5E7034654F83300F4E7945E030038
:10B070008C5F0300E42B0020094B013903EBC00077
:10B08000032909D8DFE801F00A020406042070470A
:10B090000079704740797047002070470220704760
:10B0A000945E0300034BD3E90130C31A5842584160
:10B0B000704700BF2C3200202DE9F04186B0FFF729
:10B0C000F1FF0546002840F0ED80774CC4F81804E5
:10B0D000BFF34F8FA3680293DBB2033304EB83000B
:10B0E00002A9FFF7E7FE029B18B1D4F81824002A42
:10B0F0005AD0DAB2991C013304EB8202DBB204EBC2
:10B100008303D268DB68049302F00303022B0392EB
:10B11000029154D1BDF80E306448C3F38917502F03
:10B120003E4628BF502606F1080166F38F13C1F38F
:10B130000901ADF80E30FDF736FF0546002800F096
:10B140009C80FDF75FFF0023082203A92846FDF736
:10B150006BFF0299CB43DBB20133C9B20331B6EBCB
:10B16000830F4FEA830204EB810125D95FFA82F84D
:10B170000823A6EB08062846FDF756FFF6B208F1AD
:10B1800008034B4903F0FC0332462846FDF74CFF09
:10B19000029B033703EB97070297D4F81834002B70
:10B1A00043D1D4F8106453E062689A4294D8A26004
:10B1B000284606B0BDE8F08108233246E5E7012BBA
:10B1C0005BD1BDF80C303948C3F38311062928BF81
:10B1D000062161F38913023101F00F018900ADF8F6
:10B1E0000C30FDF7E0FE0546002846D0FDF70AFFCB
:10B1F0000023082203A92846FDF716FF0026BDF804
:10B200000C20C2F38312B300964203F10803C4D2A8
:10B2100002994A1CC9B20331029204EB8101042253
:10B220002846FDF701FF0136E9E72846FDF7EEFE67
:10B23000FFF738FF80F00100C5B2B9E7F3685B792A
:10B2400023B1336829461B6830469847F3681E6867
:10B25000002EF3D12846FDF7D9FE0DF107008DF839
:10B260000760FBF713FFD4F818340BB9029BA360F7
:10B270009DF80700FBF72EFFDAE7D4F8104454B925
:10B280000C4B0D480D49C01AC008000440F00200E4
:10B2900000F05CF8CCE7236820469B689847E36899
:10B2A0001C68ECE7002583E72C320020785E030061
:10B2B00038320020945E0300CC5E03002168030056
:10B2C0002DE9F34704460E46924601A9012218468D
:10B2D0009946FFF70DFE1B4F10B3019D4FF000087C
:10B2E000AA1CC84508EB020123D117480021FDF72D
:10B2F000AEF880F31000000440EA1440E4006B1C38
:10B3000004F03804DBB2EDB244F0010407EB830330
:10B31000033544EA881444EA8624D86047F8254077
:10B320003B781BB1FFF7C8FE0028FBD102B0BDE897
:10B33000F087C9B207EB81015AF82830CB6008F1D9
:10B340000108CEE72C3200204836002000231A46A0
:10B35000FFF7B6BF07B50123019201AAFFF7B0FFBF
:10B3600003B05DF804FB07B5CDE9002302236A466C
:10B37000FFF7A6FF03B05DF804FB1FB5CDE901237D
:10B38000069B039301AA0323FFF79AFF05B05DF81C
:10B3900004FB1FB5CDE90023069B0293079B039393
:10B3A0006A460423FFF78CFF05B05DF804FB7FB508
:10B3B000CDE90123089B0393099B04930A9B059302
:10B3C00001AA0523FFF77CFF07B05DF804FB00002E
:10B3D00030B50F4CD4F8102403460020114631B983
:10B3E000D96808714AB9C4F810340A6030BDC96818
:10B3F0000D79854206D00968F1E7D26814680C60BF
:10B400001360F3E701300A28E8D14FF0FF30EDE791
:10B410002C32002038B5084B0125D3F810441D709C
:10B4200004B938BDE3685D71236820465B689847BE
:10B43000E3681C68F4E700BF2C32002030B5C388F5
:10B4400085B004460D4633B1144A00921449154A9A
:10B450002846FDF7C4F8217A05291DD0637A4BB13F
:10B46000A088FFF709FE104B104953F8202028460A
:10B47000FDF7B5F8227A0E4BA08853F822200392EC
:10B480000021FFF7DDFD039A0A490346284605B06F
:10B49000BDE83040FDF7A3B805B030BD64680300D7
:10B4A0004C68030044680300D06803001F9E03003B
:10B4B000F46803006968030007B503460846197A73
:10B4C000052911D05B7A2BB1094A0A490190FDF791
:10B4D00086F8019808490190FDF781F8019803B0BA
:10B4E0005DF804EBFDF770B8002AF8D0F2E700BF72
:10B4F000646803001F9E0300616803002DE9F043A8
:10B5000085B01F460C9D002395F80C902B730646C2
:10B510000C46904629463846FFF790FFB8F1060FD3
:10B5200009D8DFE808F00412181F2833400031461C
:10B530002846FDF754F8002229463846FFF7BCFF9D
:10B5400085F80C9005B0BDE8F083226831462846A6
:10B55000FDF745F8EFE7D4E9002331462846FDF72B
:10B560003EF8E8E7A36800933146D4E90023284673
:10B57000FDF735F8DFE7E3680193A36800933146F0
:10B58000D4E900232846FDF72AF8D4E7236902937B
:10B59000E3680193A36800933146D4E90023284669
:10B5A000FDF71DF8C7E76369039323690293E36816
:10B5B0000193A36800933146D4E900232846FDF7A0
:10B5C0000EF8B8E708292DE9F74F80460E461746D2
:10B5D0001C463DD800251B7B257321461046019350
:10B5E000FFF72CFFDFF88CA0DFF88CB0AE4232D929
:10B5F00018F8052059462046FCF7F1FF0135082DC3
:10B60000F4D11B49DFF874A0DFF874B02046FCF7D2
:10B61000E6FF4FF000094E4524D918F809507E2D59
:10B620001ED8284607F082FB002814BF2A462E2287
:10B6300059462046FCF7D3FF09F10109B9F1080F7B
:10B64000E9D1012221463846FFF736FF019B2373DB
:10B6500003B0BDE8F08F51462046FCF7C0FFCDE7B0
:10B660002E22E5E751462046FCF7B9FFE4E700BF8C
:10B670007D68030079680300736803007B6803003A
:10B680007F6803004FF48C72002107F0F0BB18B103
:10B690004FF48C7100F0E4BE70470000C02AF0B592
:10B6A00041D0B2F5807F40D0802A40F0C5800A2387
:10B6B0000446036000F10803520944F8043F01EB1B
:10B6C00082028A4233D103680C2B3ED00E2B6CD001
:10B6D0000A2B26D15A4D5B4900F1A006426955F864
:10B6E000044B8768C2F307237C40CB5C6340140E95
:10B6F00010300C5D83EA0443D4B20C5D83EA04632A
:10B70000C2F307440C5D83EA042350F8044C8360C1
:10B7100063400468C36063400361534043618642F1
:10B72000DCD100208AE00C23C2E70E23C0E78B782F
:10B730004D781B0443EA05230D782B43CD7843EA6B
:10B74000056344F8043F0431BBE73D4C3D4900F13B
:10B75000C005C26954F8046B8768C2F307237E40B2
:10B76000CB5C7340160E18308E5D83EA0643D6B26A
:10B770008E5D83EA0663C2F307468E5D83EA062385
:10B7800050F80C6C8360734050F8086CC3607340D1
:10B7900050F8046C03617340066843617340836131
:10B7A0005340C3618542D4D1BBE7254D254900F103
:10B7B000E006446A55F8042B8768C4F307237A40EF
:10B7C000CB5C87695340220E20308A5C83EA0243B7
:10B7D000E2B28A5C83EA0263C4F307428A5C83EACA
:10B7E000022350F8142C8360534050F8102CC3608F
:10B7F000534050F80C2C03615340DAB243618A5C29
:10B800007A401F0ECF5D82EA0762C3F30727C3F3B6
:10B810000743CF5DCB5C82EA072282EA034350F8FC
:10B82000042C836153400268C36153400362634048
:10B8300043628642BDD174E76FF01F00F0BD00BFC8
:10B84000087A0300086903002DE9F04F97B04368B8
:10B850000D680E951C68A84FA84E6C400E945D684C
:10B860004C686C400F949D688C68C9686C4010945B
:10B8700003F11004DB68A24D00944B401193036860
:10B880000D945B100393013B049301930023204626
:10B890000293DDE90EE1C1F30723DDF840C057F85C
:10B8A00023300693CCF30743CCF3072856F8233014
:10B8B0000793119B57F828400894C3F307484FEAB1
:10B8C0001C6956F828400994C3F307285FFA8CFCDA
:10B8D00057F828400A94CEF30748203056F82840FD
:10B8E0000B94CEF3072857F828400594C1F3074876
:10B8F000844C56F828B054F829A05FFA83F84FEA30
:10B90000116955F82880C9B288EA0A0A55F82C80CE
:10B9100054F829C055F821104FEA1E6988EA0C082E
:10B9200054F829C05FFA8EFE81EA0C014FEA136CCD
:10B9300055F82E3054F82C9083EA0909019B002B0E
:10B94000DDE9063483EA0403089CA446099C8CEADA
:10B95000040C0A9CA6460B9C8EEA040E00F3D680CB
:10B96000039C0498002C009C4FEA4010D8BF002094
:10B9700004442046029C04B10D900D9E3068B568C9
:10B980007468434083EA0907F36812978BEA0A0B4D
:10B990008BEA030B059B8EEA050585EA08088BEA0E
:10B9A000030B594DCDF854B0FBB28CEA040CEC5C9F
:10B9B0003369CDF850805C404FEA1B638CEA01018B
:10B9C000EB5C139184EA0364C1F30723C7F30729EF
:10B9D000EB5C84EA0324C8F30743EB5C84EA03448A
:10B9E000CBB20E94E85C736958403B0EEB5C80EA86
:10B9F0000360C8F30723EB5C80EA0320CBF3074323
:10BA0000EB5C80EA03405FFA88F34FEA186815F8A8
:10BA100003A0B3690F908AEA030A0B0EC1F3074132
:10BA2000EB5C8AEA036ACBF307235FFA8BFBEB5CE0
:10BA30008AEA032AC7F30743EB5C8AEA034A06F162
:10BA400020030D93F66915F80B30CDF840A0734034
:10BA500015F8086083EA066315F80960695C1470DC
:10BA600083EA062383EA0143210A5170210C917075
:10BA7000010A5171010C91714FEA1A2151724FEA7A
:10BA80001A4191724FEA1A61D172190A1071137337
:10BA900051731193190C240E1B0E000ED07191736B
:10BAA000D47082F808A0D3730EA8042100F0D8FC4B
:10BAB0000FA8042100F0D4FC10A8042100F0D0FC51
:10BAC00011A8042100F0CCFC12A8042100F0C8FC4D
:10BAD00013A8042100F0C4FC14A8042100F0C0FC49
